{"abi":[{"type":"function","name":"buyNFT","inputs":[{"name":"index","type":"uint256","internalType":"uint256"},{"name":"deadline","type":"uint256","internalType":"uint256"},{"name":"v","type":"uint8","internalType":"uint8"},{"name":"r","type":"bytes32","internalType":"bytes32"},{"name":"s","type":"bytes32","internalType":"bytes32"}],"outputs":[],"stateMutability":"nonpayable"},{"type":"function","name":"cancelOrder","inputs":[{"name":"index","type":"uint256","internalType":"uint256"}],"outputs":[],"stateMutability":"nonpayable"},{"type":"function","name":"createOrder","inputs":[{"name":"nft","type":"address","internalType":"address"},{"name":"tokenId","type":"uint256","internalType":"uint256"},{"name":"token","type":"address","internalType":"address"},{"name":"price","type":"uint256","internalType":"uint256"}],"outputs":[],"stateMutability":"nonpayable"},{"type":"function","name":"getOrderCount","inputs":[],"outputs":[{"name":"","type":"uint256","internalType":"uint256"}],"stateMutability":"view"},{"type":"function","name":"getOrders","inputs":[],"outputs":[{"name":"","type":"tuple[]","internalType":"struct NFTMarket.Order[]","components":[{"name":"nft","type":"address","internalType":"address"},{"name":"tokenId","type":"uint256","internalType":"uint256"},{"name":"token","type":"address","internalType":"address"},{"name":"price","type":"uint256","internalType":"uint256"},{"name":"seller","type":"address","internalType":"address"},{"name":"status","type":"uint256","internalType":"uint256"}]}],"stateMutability":"view"},{"type":"function","name":"orders","inputs":[{"name":"","type":"uint256","internalType":"uint256"}],"outputs":[{"name":"nft","type":"address","internalType":"address"},{"name":"tokenId","type":"uint256","internalType":"uint256"},{"name":"token","type":"address","internalType":"address"},{"name":"price","type":"uint256","internalType":"uint256"},{"name":"seller","type":"address","internalType":"address"},{"name":"status","type":"uint256","internalType":"uint256"}],"stateMutability":"view"}],"bytecode":{"object":"0x6080604052348015600f57600080fd5b50610a128061001f6000396000f3fe608060405234801561001057600080fd5b50600436106100625760003560e01c80632e2dc43e14610067578063514fcac7146100855780638d0a5fbb1461009a578063a85c38ef146100ab578063f07af69d14610101578063fc05ca3114610114575b600080fd5b61006f610127565b60405161007c919061082b565b60405180910390f35b6100986100933660046108b8565b6101ca565b005b60005460405190815260200161007c565b6100be6100b93660046108b8565b6101f7565b604080516001600160a01b0397881681526020810196909652938616938501939093526060840191909152909216608082015260a081019190915260c00161007c565b61009861010f3660046108d1565b61024e565b610098610122366004610938565b610566565b60606000805480602002602001604051908101604052809291908181526020016000905b828210156101c15760008481526020908190206040805160c0810182526006860290920180546001600160a01b0390811684526001808301548587015260028301548216938501939093526003820154606085015260048201541660808401526005015460a0830152908352909201910161014b565b50505050905090565b6002600082815481106101df576101df610980565b90600052602060002090600602016005018190555050565b6000818154811061020757600080fd5b60009182526020909120600690910201805460018201546002830154600384015460048501546005909501546001600160a01b039485169650929491841693909291169086565b600054851061029b5760405162461bcd60e51b815260206004820152601460248201527313dc99195c88191bd95cc81b9bdd08195e1a5cdd60621b60448201526064015b60405180910390fd5b60008086815481106102af576102af610980565b9060005260206000209060060201905080600501546000146103135760405162461bcd60e51b815260206004820152601f60248201527f4f72646572206973206e6f7420617661696c61626c6520666f722073616c65006044820152606401610292565b6002810154600382015460405163d505accf60e01b815233600482015230602482015260448101919091526064810187905260ff8616608482015260a4810185905260c481018490526001600160a01b039091169063d505accf9060e401600060405180830381600087803b15801561038b57600080fd5b505af192505050801561039c575060015b6103d85760405162461bcd60e51b815260206004820152600d60248201526c14195c9b5a5d0819985a5b1959609a1b6044820152606401610292565b600281015460048083015460038401546040516323b872dd60e01b815233938101939093526001600160a01b0391821660248401526044830152909116906323b872dd906064016020604051808303816000875af115801561043e573d6000803e3d6000fd5b505050506040513d601f19601f820116820180604052508101906104629190610996565b6104a65760405162461bcd60e51b8152602060048201526015602482015274151bdad95b881d1c985b9cd9995c8819985a5b1959605a1b6044820152606401610292565b805460048083015460018401546040516323b872dd60e01b81526001600160a01b03928316938101939093523360248401526044830152909116906323b872dd90606401600060405180830381600087803b15801561050457600080fd5b505af1925050508015610515575060015b6105575760405162461bcd60e51b8152602060048201526013602482015272139195081d1c985b9cd9995c8819985a5b1959606a1b6044820152606401610292565b60016005820155505050505050565b600081116105a65760405162461bcd60e51b815260206004820152600d60248201526c496e76616c696420707269636560981b6044820152606401610292565b60405163020604bf60e21b81526004810184905230906001600160a01b0386169063081812fc90602401602060405180830381865afa1580156105ed573d6000803e3d6000fd5b505050506040513d601f19601f8201168201806040525081019061061191906109bf565b6001600160a01b0316148061068f575060405163e985e9c560e01b81523360048201523060248201526001600160a01b0385169063e985e9c590604401602060405180830381865afa15801561066b573d6000803e3d6000fd5b505050506040513d601f19601f8201168201806040525081019061068f9190610996565b6106ca5760405162461bcd60e51b815260206004820152600c60248201526b139bdd08185c1c1c9bdd995960a21b6044820152606401610292565b6040805160c0810182526001600160a01b03958616815260208101948552928516908301908152606083019182523360808401908152600060a085018181528154600181018355918052945160069091027f290decd9548b62a8d60345a988386fc84ba6bc95484008f6362f93160ef3e563810180549289166001600160a01b031993841617905595517f290decd9548b62a8d60345a988386fc84ba6bc95484008f6362f93160ef3e56487015591517f290decd9548b62a8d60345a988386fc84ba6bc95484008f6362f93160ef3e5658601805491881691841691909117905591517f290decd9548b62a8d60345a988386fc84ba6bc95484008f6362f93160ef3e56685015590517f290decd9548b62a8d60345a988386fc84ba6bc95484008f6362f93160ef3e567840180549190951691161790925590517f290decd9548b62a8d60345a988386fc84ba6bc95484008f6362f93160ef3e56890910155565b602080825282518282018190526000918401906040840190835b818110156108ad57835180516001600160a01b03908116855260208083015181870152604080840151831690870152606080840151908701526080808401519092169186019190915260a091820151918501919091529093019260c090920191600101610845565b509095945050505050565b6000602082840312156108ca57600080fd5b5035919050565b600080600080600060a086880312156108e957600080fd5b8535945060208601359350604086013560ff8116811461090857600080fd5b94979396509394606081013594506080013592915050565b6001600160a01b038116811461093557600080fd5b50565b6000806000806080858703121561094e57600080fd5b843561095981610920565b935060208501359250604085013561097081610920565b9396929550929360600135925050565b634e487b7160e01b600052603260045260246000fd5b6000602082840312156109a857600080fd5b815180151581146109b857600080fd5b9392505050565b6000602082840312156109d157600080fd5b81516109b88161092056fea26469706673582212208dd59eed1583b4e8761fbb34099a6d0c89bc09abeb42ee777ce437353813fae264736f6c634300081a0033","linkReferences":{}},"methodIdentifiers":{"buyNFT(uint256,uint256,uint8,bytes32,bytes32)":"f07af69d","cancelOrder(uint256)":"514fcac7","createOrder(address,uint256,address,uint256)":"fc05ca31","getOrderCount()":"8d0a5fbb","getOrders()":"2e2dc43e","orders(uint256)":"a85c38ef"},"id":24}