{"abi":[{"type":"function","name":"buyNFT","inputs":[{"name":"index","type":"uint256","internalType":"uint256"},{"name":"deadline","type":"uint256","internalType":"uint256"},{"name":"v","type":"uint8","internalType":"uint8"},{"name":"r","type":"bytes32","internalType":"bytes32"},{"name":"s","type":"bytes32","internalType":"bytes32"}],"outputs":[],"stateMutability":"nonpayable"},{"type":"function","name":"cancelOrder","inputs":[{"name":"index","type":"uint256","internalType":"uint256"}],"outputs":[],"stateMutability":"nonpayable"},{"type":"function","name":"createOrder","inputs":[{"name":"nft","type":"address","internalType":"address"},{"name":"tokenId","type":"uint256","internalType":"uint256"},{"name":"token","type":"address","internalType":"address"},{"name":"price","type":"uint256","internalType":"uint256"}],"outputs":[],"stateMutability":"nonpayable"},{"type":"function","name":"deployNFTContract","inputs":[{"name":"name","type":"string","internalType":"string"},{"name":"symbol","type":"string","internalType":"string"},{"name":"tokenIconURI","type":"string","internalType":"string"}],"outputs":[{"name":"","type":"address","internalType":"address"}],"stateMutability":"nonpayable"},{"type":"function","name":"getOrderCount","inputs":[],"outputs":[{"name":"","type":"uint256","internalType":"uint256"}],"stateMutability":"view"},{"type":"function","name":"getOrders","inputs":[],"outputs":[{"name":"","type":"tuple[]","internalType":"struct NFTMarket.Order[]","components":[{"name":"nft","type":"address","internalType":"address"},{"name":"tokenId","type":"uint256","internalType":"uint256"},{"name":"token","type":"address","internalType":"address"},{"name":"price","type":"uint256","internalType":"uint256"},{"name":"seller","type":"address","internalType":"address"},{"name":"status","type":"uint256","internalType":"uint256"}]}],"stateMutability":"view"},{"type":"function","name":"orders","inputs":[{"name":"","type":"uint256","internalType":"uint256"}],"outputs":[{"name":"nft","type":"address","internalType":"address"},{"name":"tokenId","type":"uint256","internalType":"uint256"},{"name":"token","type":"address","internalType":"address"},{"name":"price","type":"uint256","internalType":"uint256"},{"name":"seller","type":"address","internalType":"address"},{"name":"status","type":"uint256","internalType":"uint256"}],"stateMutability":"view"},{"type":"event","name":"NFTContractDeployed","inputs":[{"name":"nftAddress","type":"address","indexed":true,"internalType":"address"},{"name":"name","type":"string","indexed":false,"internalType":"string"},{"name":"symbol","type":"string","indexed":false,"internalType":"string"}],"anonymous":false}],"bytecode":{"object":"0x6080604052348015600f57600080fd5b506124e28061001f6000396000f3fe608060405234801561001057600080fd5b506004361061007d5760003560e01c80638d0a5fbb1161005b5780638d0a5fbb146100e0578063a85c38ef146100f1578063f07af69d14610147578063fc05ca311461015a57600080fd5b80632e2dc43e14610082578063514fcac7146100a057806365b8d328146100b5575b600080fd5b61008a61016d565b6040516100979190610906565b60405180910390f35b6100b36100ae366004610993565b610210565b005b6100c86100c3366004610a51565b61023d565b6040516001600160a01b039091168152602001610097565b600054604051908152602001610097565b6101046100ff366004610993565b6102c5565b604080516001600160a01b0397881681526020810196909652938616938501939093526060840191909152909216608082015260a081019190915260c001610097565b6100b3610155366004610ae5565b61031c565b6100b3610168366004610b4c565b610634565b60606000805480602002602001604051908101604052809291908181526020016000905b828210156102075760008481526020908190206040805160c0810182526006860290920180546001600160a01b0390811684526001808301548587015260028301548216938501939093526003820154606085015260048201541660808401526005015460a08301529083529092019101610191565b50505050905090565b60026000828154811061022557610225610b94565b90600052602060002090600602016005018190555050565b60008084848460405161024f906108f9565b61025b93929190610bf0565b604051809103906000f080158015610277573d6000803e3d6000fd5b509050806001600160a01b03167fe693e8e3d21f2e3c5eeb02359fea32bdf5e73ca7a0e7b5730c86344408de901e86866040516102b5929190610c33565b60405180910390a2949350505050565b600081815481106102d557600080fd5b60009182526020909120600690910201805460018201546002830154600384015460048501546005909501546001600160a01b039485169650929491841693909291169086565b60005485106103695760405162461bcd60e51b815260206004820152601460248201527313dc99195c88191bd95cc81b9bdd08195e1a5cdd60621b60448201526064015b60405180910390fd5b600080868154811061037d5761037d610b94565b9060005260206000209060060201905080600501546000146103e15760405162461bcd60e51b815260206004820152601f60248201527f4f72646572206973206e6f7420617661696c61626c6520666f722073616c65006044820152606401610360565b6002810154600382015460405163d505accf60e01b815233600482015230602482015260448101919091526064810187905260ff8616608482015260a4810185905260c481018490526001600160a01b039091169063d505accf9060e401600060405180830381600087803b15801561045957600080fd5b505af192505050801561046a575060015b6104a65760405162461bcd60e51b815260206004820152600d60248201526c14195c9b5a5d0819985a5b1959609a1b6044820152606401610360565b600281015460048083015460038401546040516323b872dd60e01b815233938101939093526001600160a01b0391821660248401526044830152909116906323b872dd906064016020604051808303816000875af115801561050c573d6000803e3d6000fd5b505050506040513d601f19601f820116820180604052508101906105309190610c61565b6105745760405162461bcd60e51b8152602060048201526015602482015274151bdad95b881d1c985b9cd9995c8819985a5b1959605a1b6044820152606401610360565b805460048083015460018401546040516323b872dd60e01b81526001600160a01b03928316938101939093523360248401526044830152909116906323b872dd90606401600060405180830381600087803b1580156105d257600080fd5b505af19250505080156105e3575060015b6106255760405162461bcd60e51b8152602060048201526013602482015272139195081d1c985b9cd9995c8819985a5b1959606a1b6044820152606401610360565b60016005820155505050505050565b600081116106745760405162461bcd60e51b815260206004820152600d60248201526c496e76616c696420707269636560981b6044820152606401610360565b60405163020604bf60e21b81526004810184905230906001600160a01b0386169063081812fc90602401602060405180830381865afa1580156106bb573d6000803e3d6000fd5b505050506040513d601f19601f820116820180604052508101906106df9190610c8a565b6001600160a01b0316148061075d575060405163e985e9c560e01b81523360048201523060248201526001600160a01b0385169063e985e9c590604401602060405180830381865afa158015610739573d6000803e3d6000fd5b505050506040513d601f19601f8201168201806040525081019061075d9190610c61565b6107985760405162461bcd60e51b815260206004820152600c60248201526b139bdd08185c1c1c9bdd995960a21b6044820152606401610360565b6040805160c0810182526001600160a01b03958616815260208101948552928516908301908152606083019182523360808401908152600060a085018181528154600181018355918052945160069091027f290decd9548b62a8d60345a988386fc84ba6bc95484008f6362f93160ef3e563810180549289166001600160a01b031993841617905595517f290decd9548b62a8d60345a988386fc84ba6bc95484008f6362f93160ef3e56487015591517f290decd9548b62a8d60345a988386fc84ba6bc95484008f6362f93160ef3e5658601805491881691841691909117905591517f290decd9548b62a8d60345a988386fc84ba6bc95484008f6362f93160ef3e56685015590517f290decd9548b62a8d60345a988386fc84ba6bc95484008f6362f93160ef3e567840180549190951691161790925590517f290decd9548b62a8d60345a988386fc84ba6bc95484008f6362f93160ef3e56890910155565b61180580610ca883390190565b602080825282518282018190526000918401906040840190835b8181101561098857835180516001600160a01b03908116855260208083015181870152604080840151831690870152606080840151908701526080808401519092169186019190915260a091820151918501919091529093019260c090920191600101610920565b509095945050505050565b6000602082840312156109a557600080fd5b5035919050565b634e487b7160e01b600052604160045260246000fd5b600082601f8301126109d357600080fd5b813567ffffffffffffffff8111156109ed576109ed6109ac565b604051601f8201601f19908116603f0116810167ffffffffffffffff81118282101715610a1c57610a1c6109ac565b604052818152838201602001851015610a3457600080fd5b816020850160208301376000918101602001919091529392505050565b600080600060608486031215610a6657600080fd5b833567ffffffffffffffff811115610a7d57600080fd5b610a89868287016109c2565b935050602084013567ffffffffffffffff811115610aa657600080fd5b610ab2868287016109c2565b925050604084013567ffffffffffffffff811115610acf57600080fd5b610adb868287016109c2565b9150509250925092565b600080600080600060a08688031215610afd57600080fd5b8535945060208601359350604086013560ff81168114610b1c57600080fd5b94979396509394606081013594506080013592915050565b6001600160a01b0381168114610b4957600080fd5b50565b60008060008060808587031215610b6257600080fd5b8435610b6d81610b34565b9350602085013592506040850135610b8481610b34565b9396929550929360600135925050565b634e487b7160e01b600052603260045260246000fd5b6000815180845260005b81811015610bd057602081850181015186830182015201610bb4565b506000602082860101526020601f19601f83011685010191505092915050565b606081526000610c036060830186610baa565b8281036020840152610c158186610baa565b90508281036040840152610c298185610baa565b9695505050505050565b604081526000610c466040830185610baa565b8281036020840152610c588185610baa565b95945050505050565b600060208284031215610c7357600080fd5b81518015158114610c8357600080fd5b9392505050565b600060208284031215610c9c57600080fd5b8151610c8381610b3456fe608060405234801561001057600080fd5b5060405161180538038061180583398101604081905261002f9161011d565b8282600061003d838261023b565b50600161004a828261023b565b506009915061005b9050828261023b565b505050506102f9565b634e487b7160e01b600052604160045260246000fd5b600082601f83011261008b57600080fd5b81516001600160401b038111156100a4576100a4610064565b604051601f8201601f19908116603f011681016001600160401b03811182821017156100d2576100d2610064565b6040528181528382016020018510156100ea57600080fd5b60005b82811015610109576020818601810151838301820152016100ed565b506000918101602001919091529392505050565b60008060006060848603121561013257600080fd5b83516001600160401b0381111561014857600080fd5b6101548682870161007a565b602086015190945090506001600160401b0381111561017257600080fd5b61017e8682870161007a565b604086015190935090506001600160401b0381111561019c57600080fd5b6101a88682870161007a565b9150509250925092565b600181811c908216806101c657607f821691505b6020821081036101e657634e487b7160e01b600052602260045260246000fd5b50919050565b601f82111561023657806000526020600020601f840160051c810160208510156102135750805b601f840160051c820191505b81811015610233576000815560010161021f565b50505b505050565b81516001600160401b0381111561025457610254610064565b6102688161026284546101b2565b846101ec565b6020601f82116001811461029c57600083156102845750848201515b600019600385901b1c1916600184901b178455610233565b600084815260208120601f198516915b828110156102cc57878501518255602094850194600190920191016102ac565b50848210156102ea5786840151600019600387901b60f8161c191681555b50505050600190811b01905550565b6114fd806103086000396000f3fe608060405234801561001057600080fd5b506004361061010b5760003560e01c806370a08231116100a2578063b88d4fde11610071578063b88d4fde14610213578063c87b56dd14610226578063d0def52114610239578063e985e9c51461024c578063e9a785ef1461025f57600080fd5b806370a08231146101dd5780639387f289146101f057806395d89b41146101f8578063a22cb4651461020057600080fd5b806318160ddd116100de57806318160ddd1461018d57806323b872dd146101a457806342842e0e146101b75780636352211e146101ca57600080fd5b806301ffc9a71461011057806306fdde0314610138578063081812fc1461014d578063095ea7b314610178575b600080fd5b61012361011e366004610f4e565b610274565b60405190151581526020015b60405180910390f35b61014061029f565b60405161012f9190610fbb565b61016061015b366004610fce565b610331565b6040516001600160a01b03909116815260200161012f565b61018b610186366004611003565b61035a565b005b61019660085481565b60405190815260200161012f565b61018b6101b236600461102d565b610369565b61018b6101c536600461102d565b6103f9565b6101606101d8366004610fce565b610419565b6101966101eb36600461106a565b610424565b61014061046c565b6101406104fa565b61018b61020e366004611085565b610509565b61018b610221366004611151565b610514565b610140610234366004610fce565b61052b565b6101966102473660046111cd565b61063c565b61012361025a36600461122f565b610687565b6102676106b5565b60405161012f9190611262565b60006001600160e01b03198216632483248360e11b148061029957506102998261074b565b92915050565b6060600080546102ae906112c7565b80601f01602080910402602001604051908101604052809291908181526020018280546102da906112c7565b80156103275780601f106102fc57610100808354040283529160200191610327565b820191906000526020600020905b81548152906001019060200180831161030a57829003601f168201915b5050505050905090565b600061033c8261079b565b506000828152600460205260409020546001600160a01b0316610299565b6103658282336107d4565b5050565b6001600160a01b03821661039857604051633250574960e11b8152600060048201526024015b60405180910390fd5b60006103a58383336107e1565b9050836001600160a01b0316816001600160a01b0316146103f3576040516364283d7b60e01b81526001600160a01b038086166004830152602482018490528216604482015260640161038f565b50505050565b61041483838360405180602001604052806000815250610514565b505050565b60006102998261079b565b60006001600160a01b038216610450576040516322718ad960e21b81526000600482015260240161038f565b506001600160a01b031660009081526003602052604090205490565b60098054610479906112c7565b80601f01602080910402602001604051908101604052809291908181526020018280546104a5906112c7565b80156104f25780601f106104c7576101008083540402835291602001916104f2565b820191906000526020600020905b8154815290600101906020018083116104d557829003601f168201915b505050505081565b6060600180546102ae906112c7565b6103653383836108da565b61051f848484610369565b6103f384848484610979565b60606105368261079b565b5060008281526006602052604081208054610550906112c7565b80601f016020809104026020016040519081016040528092919081815260200182805461057c906112c7565b80156105c95780601f1061059e576101008083540402835291602001916105c9565b820191906000526020600020905b8154815290600101906020018083116105ac57829003601f168201915b5050505050905060006105e760408051602081019091526000815290565b905080516000036105f9575092915050565b81511561062b5780826040516020016106139291906112fb565b60405160208183030381529060405292505050919050565b61063484610aa2565b949350505050565b60078054600091829190826106508361132a565b9190505590506106608482610b17565b61066a8184610b31565b6008805490600061067a8361132a565b9091555090949350505050565b6001600160a01b03918216600090815260056020908152604080832093909416825291909152205460ff1690565b6060600060085467ffffffffffffffff8111156106d4576106d46110c1565b60405190808252806020026020018201604052801561070757816020015b60608152602001906001900390816106f25790505b50905060005b600854811015610745576107208161052b565b82828151811061073257610732611351565b602090810291909101015260010161070d565b50919050565b60006001600160e01b031982166380ac58cd60e01b148061077c57506001600160e01b03198216635b5e139f60e01b145b8061029957506301ffc9a760e01b6001600160e01b0319831614610299565b6000818152600260205260408120546001600160a01b03168061029957604051637e27328960e01b81526004810184905260240161038f565b6104148383836001610b81565b6000828152600260205260408120546001600160a01b039081169083161561080e5761080e818486610c87565b6001600160a01b0381161561084c5761082b600085600080610b81565b6001600160a01b038116600090815260036020526040902080546000190190555b6001600160a01b0385161561087b576001600160a01b0385166000908152600360205260409020805460010190555b60008481526002602052604080822080546001600160a01b0319166001600160a01b0389811691821790925591518793918516917fddf252ad1be2c89b69c2b068fc378daa952ba7f163c4a11628f55a4df523b3ef91a4949350505050565b6001600160a01b03821661090c57604051630b61174360e31b81526001600160a01b038316600482015260240161038f565b6001600160a01b03838116600081815260056020908152604080832094871680845294825291829020805460ff191686151590811790915591519182527f17307eab39ab6107e8899845ad3d59bd9653f200f220920489ca2b5937696c31910160405180910390a3505050565b6001600160a01b0383163b156103f357604051630a85bd0160e11b81526001600160a01b0384169063150b7a02906109bb903390889087908790600401611367565b6020604051808303816000875af19250505080156109f6575060408051601f3d908101601f191682019092526109f3918101906113a4565b60015b610a5f573d808015610a24576040519150601f19603f3d011682016040523d82523d6000602084013e610a29565b606091505b508051600003610a5757604051633250574960e11b81526001600160a01b038516600482015260240161038f565b805181602001fd5b6001600160e01b03198116630a85bd0160e11b14610a9b57604051633250574960e11b81526001600160a01b038516600482015260240161038f565b5050505050565b6060610aad8261079b565b506000610ac560408051602081019091526000815290565b90506000815111610ae55760405180602001604052806000815250610b10565b80610aef84610ceb565b604051602001610b009291906112fb565b6040516020818303038152906040525b9392505050565b610365828260405180602001604052806000815250610d7e565b6000828152600660205260409020610b498282611408565b506040518281527ff8e1a15aba9398e019f0b49df1a4fde98ee17ae345cb5f6b5e2c27f5033e8ce79060200160405180910390a15050565b8080610b9557506001600160a01b03821615155b15610c57576000610ba58461079b565b90506001600160a01b03831615801590610bd15750826001600160a01b0316816001600160a01b031614155b8015610be45750610be28184610687565b155b15610c0d5760405163a9fbf51f60e01b81526001600160a01b038416600482015260240161038f565b8115610c555783856001600160a01b0316826001600160a01b03167f8c5be1e5ebec7d5bd14f71427d1e84f3dd0314c0f7b2291e5b200ac8c7c3b92560405160405180910390a45b505b5050600090815260046020526040902080546001600160a01b0319166001600160a01b0392909216919091179055565b610c92838383610d95565b610414576001600160a01b038316610cc057604051637e27328960e01b81526004810182905260240161038f565b60405163177e802f60e01b81526001600160a01b03831660048201526024810182905260440161038f565b60606000610cf883610df8565b600101905060008167ffffffffffffffff811115610d1857610d186110c1565b6040519080825280601f01601f191660200182016040528015610d42576020820181803683370190505b5090508181016020015b600019016f181899199a1a9b1b9c1cb0b131b232b360811b600a86061a8153600a8504945084610d4c57509392505050565b610d888383610ed0565b6104146000848484610979565b60006001600160a01b038316158015906106345750826001600160a01b0316846001600160a01b03161480610dcf5750610dcf8484610687565b806106345750506000908152600460205260409020546001600160a01b03908116911614919050565b60008072184f03e93ff9f4daa797ed6e38ed64bf6a1f0160401b8310610e375772184f03e93ff9f4daa797ed6e38ed64bf6a1f0160401b830492506040015b6d04ee2d6d415b85acef81000000008310610e63576d04ee2d6d415b85acef8100000000830492506020015b662386f26fc100008310610e8157662386f26fc10000830492506010015b6305f5e1008310610e99576305f5e100830492506008015b6127108310610ead57612710830492506004015b60648310610ebf576064830492506002015b600a83106102995760010192915050565b6001600160a01b038216610efa57604051633250574960e11b81526000600482015260240161038f565b6000610f08838360006107e1565b90506001600160a01b03811615610414576040516339e3563760e11b81526000600482015260240161038f565b6001600160e01b031981168114610f4b57600080fd5b50565b600060208284031215610f6057600080fd5b8135610b1081610f35565b60005b83811015610f86578181015183820152602001610f6e565b50506000910152565b60008151808452610fa7816020860160208601610f6b565b601f01601f19169290920160200192915050565b602081526000610b106020830184610f8f565b600060208284031215610fe057600080fd5b5035919050565b80356001600160a01b0381168114610ffe57600080fd5b919050565b6000806040838503121561101657600080fd5b61101f83610fe7565b946020939093013593505050565b60008060006060848603121561104257600080fd5b61104b84610fe7565b925061105960208501610fe7565b929592945050506040919091013590565b60006020828403121561107c57600080fd5b610b1082610fe7565b6000806040838503121561109857600080fd5b6110a183610fe7565b9150602083013580151581146110b657600080fd5b809150509250929050565b634e487b7160e01b600052604160045260246000fd5b60008067ffffffffffffffff8411156110f2576110f26110c1565b50604051601f19601f85018116603f0116810181811067ffffffffffffffff82111715611121576111216110c1565b60405283815290508082840185101561113957600080fd5b83836020830137600060208583010152509392505050565b6000806000806080858703121561116757600080fd5b61117085610fe7565b935061117e60208601610fe7565b925060408501359150606085013567ffffffffffffffff8111156111a157600080fd5b8501601f810187136111b257600080fd5b6111c1878235602084016110d7565b91505092959194509250565b600080604083850312156111e057600080fd5b6111e983610fe7565b9150602083013567ffffffffffffffff81111561120557600080fd5b8301601f8101851361121657600080fd5b611225858235602084016110d7565b9150509250929050565b6000806040838503121561124257600080fd5b61124b83610fe7565b915061125960208401610fe7565b90509250929050565b6000602082016020835280845180835260408501915060408160051b86010192506020860160005b828110156112bb57603f198786030184526112a6858351610f8f565b9450602093840193919091019060010161128a565b50929695505050505050565b600181811c908216806112db57607f821691505b60208210810361074557634e487b7160e01b600052602260045260246000fd5b6000835161130d818460208801610f6b565b835190830190611321818360208801610f6b565b01949350505050565b60006001820161134a57634e487b7160e01b600052601160045260246000fd5b5060010190565b634e487b7160e01b600052603260045260246000fd5b6001600160a01b038581168252841660208201526040810183905260806060820181905260009061139a90830184610f8f565b9695505050505050565b6000602082840312156113b657600080fd5b8151610b1081610f35565b601f82111561041457806000526020600020601f840160051c810160208510156113e85750805b601f840160051c820191505b81811015610a9b57600081556001016113f4565b815167ffffffffffffffff811115611422576114226110c1565b6114368161143084546112c7565b846113c1565b6020601f82116001811461146a57600083156114525750848201515b600019600385901b1c1916600184901b178455610a9b565b600084815260208120601f198516915b8281101561149a578785015182556020948501946001909201910161147a565b50848210156114b85786840151600019600387901b60f8161c191681555b50505050600190811b0190555056fea2646970667358221220584c0795f791e85efa0d804d10ff4dd719297b76c899a9e03bf066eaca45f80564736f6c634300081a0033a2646970667358221220241e77af1516858fbe3438e3bf9324f614b8a733d96ff2f18f15124f1ce391fb64736f6c634300081a0033","linkReferences":{}},"methodIdentifiers":{"buyNFT(uint256,uint256,uint8,bytes32,bytes32)":"f07af69d","cancelOrder(uint256)":"514fcac7","createOrder(address,uint256,address,uint256)":"fc05ca31","deployNFTContract(string,string,string)":"65b8d328","getOrderCount()":"8d0a5fbb","getOrders()":"2e2dc43e","orders(uint256)":"a85c38ef"},"id":18}