{"abi":[{"type":"function","name":"buyNFT","inputs":[{"name":"index","type":"uint256","internalType":"uint256"},{"name":"deadline","type":"uint256","internalType":"uint256"},{"name":"v","type":"uint8","internalType":"uint8"},{"name":"r","type":"bytes32","internalType":"bytes32"},{"name":"s","type":"bytes32","internalType":"bytes32"}],"outputs":[],"stateMutability":"nonpayable"},{"type":"function","name":"cancelOrder","inputs":[{"name":"index","type":"uint256","internalType":"uint256"}],"outputs":[],"stateMutability":"nonpayable"},{"type":"function","name":"createOrder","inputs":[{"name":"nft","type":"address","internalType":"address"},{"name":"tokenId","type":"uint256","internalType":"uint256"},{"name":"token","type":"address","internalType":"address"},{"name":"price","type":"uint256","internalType":"uint256"}],"outputs":[],"stateMutability":"nonpayable"},{"type":"function","name":"getOrderCount","inputs":[],"outputs":[{"name":"","type":"uint256","internalType":"uint256"}],"stateMutability":"view"},{"type":"function","name":"orders","inputs":[{"name":"","type":"uint256","internalType":"uint256"}],"outputs":[{"name":"nft","type":"address","internalType":"address"},{"name":"tokenId","type":"uint256","internalType":"uint256"},{"name":"token","type":"address","internalType":"address"},{"name":"price","type":"uint256","internalType":"uint256"},{"name":"seller","type":"address","internalType":"address"},{"name":"status","type":"uint256","internalType":"uint256"}],"stateMutability":"view"}],"bytecode":{"object":"0x6080604052348015600f57600080fd5b506108be8061001f6000396000f3fe608060405234801561001057600080fd5b50600436106100575760003560e01c8063514fcac71461005c5780638d0a5fbb14610071578063a85c38ef14610087578063f07af69d146100dd578063fc05ca31146100f0575b600080fd5b61006f61006a366004610764565b610103565b005b6000546040519081526020015b60405180910390f35b61009a610095366004610764565b610130565b604080516001600160a01b0397881681526020810196909652938616938501939093526060840191909152909216608082015260a081019190915260c00161007e565b61006f6100eb36600461077d565b610187565b61006f6100fe3660046107e4565b61049f565b6002600082815481106101185761011861082c565b90600052602060002090600602016005018190555050565b6000818154811061014057600080fd5b60009182526020909120600690910201805460018201546002830154600384015460048501546005909501546001600160a01b039485169650929491841693909291169086565b60005485106101d45760405162461bcd60e51b815260206004820152601460248201527313dc99195c88191bd95cc81b9bdd08195e1a5cdd60621b60448201526064015b60405180910390fd5b60008086815481106101e8576101e861082c565b90600052602060002090600602019050806005015460001461024c5760405162461bcd60e51b815260206004820152601f60248201527f4f72646572206973206e6f7420617661696c61626c6520666f722073616c650060448201526064016101cb565b6002810154600382015460405163d505accf60e01b815233600482015230602482015260448101919091526064810187905260ff8616608482015260a4810185905260c481018490526001600160a01b039091169063d505accf9060e401600060405180830381600087803b1580156102c457600080fd5b505af19250505080156102d5575060015b6103115760405162461bcd60e51b815260206004820152600d60248201526c14195c9b5a5d0819985a5b1959609a1b60448201526064016101cb565b600281015460048083015460038401546040516323b872dd60e01b815233938101939093526001600160a01b0391821660248401526044830152909116906323b872dd906064016020604051808303816000875af1158015610377573d6000803e3d6000fd5b505050506040513d601f19601f8201168201806040525081019061039b9190610842565b6103df5760405162461bcd60e51b8152602060048201526015602482015274151bdad95b881d1c985b9cd9995c8819985a5b1959605a1b60448201526064016101cb565b805460048083015460018401546040516323b872dd60e01b81526001600160a01b03928316938101939093523360248401526044830152909116906323b872dd90606401600060405180830381600087803b15801561043d57600080fd5b505af192505050801561044e575060015b6104905760405162461bcd60e51b8152602060048201526013602482015272139195081d1c985b9cd9995c8819985a5b1959606a1b60448201526064016101cb565b60016005820155505050505050565b600081116104df5760405162461bcd60e51b815260206004820152600d60248201526c496e76616c696420707269636560981b60448201526064016101cb565b60405163020604bf60e21b81526004810184905230906001600160a01b0386169063081812fc90602401602060405180830381865afa158015610526573d6000803e3d6000fd5b505050506040513d601f19601f8201168201806040525081019061054a919061086b565b6001600160a01b031614806105c8575060405163e985e9c560e01b81523360048201523060248201526001600160a01b0385169063e985e9c590604401602060405180830381865afa1580156105a4573d6000803e3d6000fd5b505050506040513d601f19601f820116820180604052508101906105c89190610842565b6106035760405162461bcd60e51b815260206004820152600c60248201526b139bdd08185c1c1c9bdd995960a21b60448201526064016101cb565b6040805160c0810182526001600160a01b03958616815260208101948552928516908301908152606083019182523360808401908152600060a085018181528154600181018355918052945160069091027f290decd9548b62a8d60345a988386fc84ba6bc95484008f6362f93160ef3e563810180549289166001600160a01b031993841617905595517f290decd9548b62a8d60345a988386fc84ba6bc95484008f6362f93160ef3e56487015591517f290decd9548b62a8d60345a988386fc84ba6bc95484008f6362f93160ef3e5658601805491881691841691909117905591517f290decd9548b62a8d60345a988386fc84ba6bc95484008f6362f93160ef3e56685015590517f290decd9548b62a8d60345a988386fc84ba6bc95484008f6362f93160ef3e567840180549190951691161790925590517f290decd9548b62a8d60345a988386fc84ba6bc95484008f6362f93160ef3e56890910155565b60006020828403121561077657600080fd5b5035919050565b600080600080600060a0868803121561079557600080fd5b8535945060208601359350604086013560ff811681146107b457600080fd5b94979396509394606081013594506080013592915050565b6001600160a01b03811681146107e157600080fd5b50565b600080600080608085870312156107fa57600080fd5b8435610805816107cc565b935060208501359250604085013561081c816107cc565b9396929550929360600135925050565b634e487b7160e01b600052603260045260246000fd5b60006020828403121561085457600080fd5b8151801515811461086457600080fd5b9392505050565b60006020828403121561087d57600080fd5b8151610864816107cc56fea26469706673582212208678307eb1d7ddcb650219922f5f7b3458706a0b4782ad7298e84d19ce4889f364736f6c634300081a0033","linkReferences":{}},"methodIdentifiers":{"buyNFT(uint256,uint256,uint8,bytes32,bytes32)":"f07af69d","cancelOrder(uint256)":"514fcac7","createOrder(address,uint256,address,uint256)":"fc05ca31","getOrderCount()":"8d0a5fbb","orders(uint256)":"a85c38ef"},"id":24}